:080000001DC0FECFFDCFFCCFB7
:10000800FBCFFACFF9CFF8CFF7CFF6CFF5CFF4CFB4
:10001800F3CFF2CFF1CFF0CFEFCFEECFEDCFECCFE4
:10002800EBCF1027E80364000A000100001000016C
:1000380010000100F894EE27ECBBF1E0FBBFEBBF2A
:10004800E5BF8DE0A2E0BB27ED938A95E9F780E054
:1000580092E0A0E6ED930197E9F7EFE5EDBFE2E066
:10006800EEBFC0EED0E00FC0DD98DE9ADF984BD02F
:10007800DD9ADF98A8EEB3E049D0DF98DD9843D049
:10008800DF9ADD980895E0EEEABBEBBBE0E0E7BB62
:10009800E8BBE7EEE4BBE0E0E5BBE1BBE2BBE3BF06
:1000A800E2BFECBFEFBDEEBDEDBDECBDE7BDE6BD0B
:1000B800EBBDEABDE9BDE8BDE2BDE5BDE4BDE3BD1C
:1000C800E9BFE5BFE4BFEAB9E0E8E8B9E0E0E0BFCE
:1000D800E6B9EDB9E6BFC89906C0DD9AA89AAD9A07
:1000E80012D0C2DF10D0C89B0CC0DE98A99AAE9A75
:1000F800A2E3B0E00BD0DE9AA998AE98A2E3B0E0F4
:1001080005D0E9CFFFCFA4E6B0E000C0109639F0E3
:1001180080EA9FE00197F1F7A8951197C9F708952C
:00000001FF
